{
  "contractName": "bedaNFT",
  "abi": [
    {
      "inputs": [
        {
          "internalType": "address",
          "name": "_VRFCoordinator",
          "type": "address"
        },
        {
          "internalType": "address",
          "name": "_LinkToken",
          "type": "address"
        },
        {
          "internalType": "bytes32",
          "name": "_KeyHash",
          "type": "bytes32"
        }
      ],
      "stateMutability": "nonpayable",
      "type": "constructor"
    },
    {
      "anonymous": false,
      "inputs": [
        {
          "indexed": true,
          "internalType": "address",
          "name": "owner",
          "type": "address"
        },
        {
          "indexed": true,
          "internalType": "address",
          "name": "approved",
          "type": "address"
        },
        {
          "indexed": true,
          "internalType": "uint256",
          "name": "tokenId",
          "type": "uint256"
        }
      ],
      "name": "Approval",
      "type": "event"
    },
    {
      "anonymous": false,
      "inputs": [
        {
          "indexed": true,
          "internalType": "address",
          "name": "owner",
          "type": "address"
        },
        {
          "indexed": true,
          "internalType": "address",
          "name": "operator",
          "type": "address"
        },
        {
          "indexed": false,
          "internalType": "bool",
          "name": "approved",
          "type": "bool"
        }
      ],
      "name": "ApprovalForAll",
      "type": "event"
    },
    {
      "anonymous": false,
      "inputs": [
        {
          "indexed": true,
          "internalType": "address",
          "name": "previousOwner",
          "type": "address"
        },
        {
          "indexed": true,
          "internalType": "address",
          "name": "newOwner",
          "type": "address"
        }
      ],
      "name": "OwnershipTransferred",
      "type": "event"
    },
    {
      "anonymous": false,
      "inputs": [
        {
          "indexed": true,
          "internalType": "address",
          "name": "from",
          "type": "address"
        },
        {
          "indexed": true,
          "internalType": "address",
          "name": "to",
          "type": "address"
        },
        {
          "indexed": true,
          "internalType": "uint256",
          "name": "tokenId",
          "type": "uint256"
        }
      ],
      "name": "Transfer",
      "type": "event"
    },
    {
      "anonymous": false,
      "inputs": [
        {
          "indexed": false,
          "internalType": "uint256",
          "name": "tokenId",
          "type": "uint256"
        }
      ],
      "name": "newMint",
      "type": "event"
    },
    {
      "anonymous": false,
      "inputs": [
        {
          "indexed": false,
          "internalType": "address",
          "name": "winnerAddress",
          "type": "address"
        }
      ],
      "name": "new_Winner",
      "type": "event"
    },
    {
      "inputs": [
        {
          "internalType": "address",
          "name": "to",
          "type": "address"
        },
        {
          "internalType": "uint256",
          "name": "tokenId",
          "type": "uint256"
        }
      ],
      "name": "approve",
      "outputs": [],
      "stateMutability": "nonpayable",
      "type": "function"
    },
    {
      "inputs": [
        {
          "internalType": "address",
          "name": "owner",
          "type": "address"
        }
      ],
      "name": "balanceOf",
      "outputs": [
        {
          "internalType": "uint256",
          "name": "",
          "type": "uint256"
        }
      ],
      "stateMutability": "view",
      "type": "function",
      "constant": true
    },
    {
      "inputs": [
        {
          "internalType": "uint256",
          "name": "tokenId",
          "type": "uint256"
        }
      ],
      "name": "getApproved",
      "outputs": [
        {
          "internalType": "address",
          "name": "",
          "type": "address"
        }
      ],
      "stateMutability": "view",
      "type": "function",
      "constant": true
    },
    {
      "inputs": [
        {
          "internalType": "address",
          "name": "owner",
          "type": "address"
        },
        {
          "internalType": "address",
          "name": "operator",
          "type": "address"
        }
      ],
      "name": "isApprovedForAll",
      "outputs": [
        {
          "internalType": "bool",
          "name": "",
          "type": "bool"
        }
      ],
      "stateMutability": "view",
      "type": "function",
      "constant": true
    },
    {
      "inputs": [],
      "name": "name",
      "outputs": [
        {
          "internalType": "string",
          "name": "",
          "type": "string"
        }
      ],
      "stateMutability": "view",
      "type": "function",
      "constant": true
    },
    {
      "inputs": [],
      "name": "owner",
      "outputs": [
        {
          "internalType": "address",
          "name": "",
          "type": "address"
        }
      ],
      "stateMutability": "view",
      "type": "function",
      "constant": true
    },
    {
      "inputs": [
        {
          "internalType": "uint256",
          "name": "tokenId",
          "type": "uint256"
        }
      ],
      "name": "ownerOf",
      "outputs": [
        {
          "internalType": "address",
          "name": "",
          "type": "address"
        }
      ],
      "stateMutability": "view",
      "type": "function",
      "constant": true
    },
    {
      "inputs": [
        {
          "internalType": "bytes32",
          "name": "requestId",
          "type": "bytes32"
        },
        {
          "internalType": "uint256",
          "name": "randomness",
          "type": "uint256"
        }
      ],
      "name": "rawFulfillRandomness",
      "outputs": [],
      "stateMutability": "nonpayable",
      "type": "function"
    },
    {
      "inputs": [],
      "name": "renounceOwnership",
      "outputs": [],
      "stateMutability": "nonpayable",
      "type": "function"
    },
    {
      "inputs": [
        {
          "internalType": "address",
          "name": "from",
          "type": "address"
        },
        {
          "internalType": "address",
          "name": "to",
          "type": "address"
        },
        {
          "internalType": "uint256",
          "name": "tokenId",
          "type": "uint256"
        }
      ],
      "name": "safeTransferFrom",
      "outputs": [],
      "stateMutability": "nonpayable",
      "type": "function"
    },
    {
      "inputs": [
        {
          "internalType": "address",
          "name": "from",
          "type": "address"
        },
        {
          "internalType": "address",
          "name": "to",
          "type": "address"
        },
        {
          "internalType": "uint256",
          "name": "tokenId",
          "type": "uint256"
        },
        {
          "internalType": "bytes",
          "name": "_data",
          "type": "bytes"
        }
      ],
      "name": "safeTransferFrom",
      "outputs": [],
      "stateMutability": "nonpayable",
      "type": "function"
    },
    {
      "inputs": [
        {
          "internalType": "address",
          "name": "operator",
          "type": "address"
        },
        {
          "internalType": "bool",
          "name": "approved",
          "type": "bool"
        }
      ],
      "name": "setApprovalForAll",
      "outputs": [],
      "stateMutability": "nonpayable",
      "type": "function"
    },
    {
      "inputs": [
        {
          "internalType": "bytes4",
          "name": "interfaceId",
          "type": "bytes4"
        }
      ],
      "name": "supportsInterface",
      "outputs": [
        {
          "internalType": "bool",
          "name": "",
          "type": "bool"
        }
      ],
      "stateMutability": "view",
      "type": "function",
      "constant": true
    },
    {
      "inputs": [],
      "name": "symbol",
      "outputs": [
        {
          "internalType": "string",
          "name": "",
          "type": "string"
        }
      ],
      "stateMutability": "view",
      "type": "function",
      "constant": true
    },
    {
      "inputs": [],
      "name": "tokenCounter",
      "outputs": [
        {
          "internalType": "uint256",
          "name": "",
          "type": "uint256"
        }
      ],
      "stateMutability": "view",
      "type": "function",
      "constant": true
    },
    {
      "inputs": [
        {
          "internalType": "uint256",
          "name": "tokenId",
          "type": "uint256"
        }
      ],
      "name": "tokenURI",
      "outputs": [
        {
          "internalType": "string",
          "name": "",
          "type": "string"
        }
      ],
      "stateMutability": "view",
      "type": "function",
      "constant": true
    },
    {
      "inputs": [
        {
          "internalType": "address",
          "name": "",
          "type": "address"
        }
      ],
      "name": "tokensToClaim",
      "outputs": [
        {
          "internalType": "uint256",
          "name": "",
          "type": "uint256"
        }
      ],
      "stateMutability": "view",
      "type": "function",
      "constant": true
    },
    {
      "inputs": [
        {
          "internalType": "address",
          "name": "from",
          "type": "address"
        },
        {
          "internalType": "address",
          "name": "to",
          "type": "address"
        },
        {
          "internalType": "uint256",
          "name": "tokenId",
          "type": "uint256"
        }
      ],
      "name": "transferFrom",
      "outputs": [],
      "stateMutability": "nonpayable",
      "type": "function"
    },
    {
      "inputs": [
        {
          "internalType": "address",
          "name": "newOwner",
          "type": "address"
        }
      ],
      "name": "transferOwnership",
      "outputs": [],
      "stateMutability": "nonpayable",
      "type": "function"
    },
    {
      "inputs": [],
      "name": "checkTime",
      "outputs": [],
      "stateMutability": "nonpayable",
      "type": "function"
    },
    {
      "inputs": [
        {
          "internalType": "uint256",
          "name": "_avgSale",
          "type": "uint256"
        },
        {
          "internalType": "uint256",
          "name": "_requestId",
          "type": "uint256"
        }
      ],
      "name": "updateNextGenTime",
      "outputs": [],
      "stateMutability": "nonpayable",
      "type": "function"
    },
    {
      "inputs": [],
      "name": "claimReward",
      "outputs": [],
      "stateMutability": "nonpayable",
      "type": "function"
    },
    {
      "inputs": [],
      "name": "mintToken",
      "outputs": [],
      "stateMutability": "nonpayable",
      "type": "function"
    },
    {
      "inputs": [
        {
          "internalType": "address",
          "name": "_oracle",
          "type": "address"
        }
      ],
      "name": "setOracleInstance",
      "outputs": [],
      "stateMutability": "nonpayable",
      "type": "function"
    },
    {
      "inputs": [
        {
          "internalType": "address",
          "name": "_service",
          "type": "address"
        }
      ],
      "name": "setOracleService",
      "outputs": [],
      "stateMutability": "nonpayable",
      "type": "function"
    },
    {
      "inputs": [
        {
          "internalType": "uint256",
          "name": "_no_Days",
          "type": "uint256"
        }
      ],
      "name": "setDefaultGenTime",
      "outputs": [],
      "stateMutability": "nonpayable",
      "type": "function"
    },
    {
      "inputs": [],
      "name": "getNextGenTime",
      "outputs": [
        {
          "internalType": "uint256",
          "name": "",
          "type": "uint256"
        }
      ],
      "stateMutability": "view",
      "type": "function",
      "constant": true
    },
    {
      "inputs": [],
      "name": "getOracleService",
      "outputs": [
        {
          "internalType": "address",
          "name": "",
          "type": "address"
        }
      ],
      "stateMutability": "view",
      "type": "function",
      "constant": true
    }
  ],
  "bytecode": "0x60c06040526005600a553480156200001657600080fd5b5060405162003fdc38038062003fdc83398181016040528101906200003c919062000341565b82826040518060400160405280600881526020017f42454441204172740000000000000000000000000000000000000000000000008152506040518060400160405280600481526020017f42454441000000000000000000000000000000000000000000000000000000008152508160009080519060200190620000c292919062000263565b508060019080519060200190620000db92919062000263565b5050508173ffffffffffffffffffffffffffffffffffffffff1660a08173ffffffffffffffffffffffffffffffffffffffff1660601b815250508073ffffffffffffffffffffffffffffffffffffffff1660808173ffffffffffffffffffffffffffffffffffffffff1660601b8152505050506200016e620001626200019560201b60201c565b6200019d60201b60201c565b6000600d8190555080600e8190555067016345785d8a0000600f819055505050506200046e565b600033905090565b6000600760009054906101000a900473ffffffffffffffffffffffffffffffffffffffff16905081600760006101000a81548173ffffffffffffffffffffffffffffffffffffffff021916908373ffffffffffffffffffffffffffffffffffffffff1602179055508173ffffffffffffffffffffffffffffffffffffffff168173ffffffffffffffffffffffffffffffffffffffff167f8be0079c531659141344cd1fd0a4f28419497f9722a3daafe3b4186f6b6457e060405160405180910390a35050565b8280546200027190620003d5565b90600052602060002090601f016020900481019282620002955760008555620002e1565b82601f10620002b057805160ff1916838001178555620002e1565b82800160010185558215620002e1579182015b82811115620002e0578251825591602001919060010190620002c3565b5b509050620002f09190620002f4565b5090565b5b808211156200030f576000816000905550600101620002f5565b5090565b60008151905062000324816200043a565b92915050565b6000815190506200033b8162000454565b92915050565b6000806000606084860312156200035757600080fd5b6000620003678682870162000313565b93505060206200037a8682870162000313565b92505060406200038d868287016200032a565b9150509250925092565b6000620003a482620003b5565b9050919050565b6000819050919050565b600073ffffffffffffffffffffffffffffffffffffffff82169050919050565b60006002820490506001821680620003ee57607f821691505b602082108114156200040557620004046200040b565b5b50919050565b7f4e487b7100000000000000000000000000000000000000000000000000000000600052602260045260246000fd5b620004458162000397565b81146200045157600080fd5b50565b6200045f81620003ab565b81146200046b57600080fd5b50565b60805160601c60a05160601c613b3b620004a160003960008181610e460152612214015260006121d80152613b3b6000f3fe608060405234801561001057600080fd5b50600436106101c45760003560e01c80638da5cb5b116100f9578063b88d4fde11610097578063e0c6190d11610071578063e0c6190d146104b5578063e850308d146104bf578063e985e9c5146104dd578063f2fde38b1461050d576101c4565b8063b88d4fde1461044b578063c87b56dd14610467578063d082e38114610497576101c4565b806395d89b41116100d357806395d89b41146103e9578063a22cb46514610407578063a7ecda3614610423578063b88a802f14610441576101c4565b80638da5cb5b146103935780638e0bde18146103b157806394985ddd146103cd576101c4565b806342842e0e116101665780635fa809fd116101405780635fa809fd1461030d5780636352211e1461032957806370a0823114610359578063715018a614610389576101c4565b806342842e0e146102b9578063515ba4a9146102d557806351be1af0146102f1576101c4565b8063095ea7b3116101a2578063095ea7b3146102475780631e868334146102635780632004ffd91461029357806323b872dd1461029d576101c4565b806301ffc9a7146101c957806306fdde03146101f9578063081812fc14610217575b600080fd5b6101e360048036038101906101de91906128a2565b610529565b6040516101f09190612e1d565b60405180910390f35b61020161060b565b60405161020e9190612ea6565b60405180910390f35b610231600480360381019061022c91906128f4565b61069d565b60405161023e9190612d78565b60405180910390f35b610261600480360381019061025c9190612801565b610722565b005b61027d60048036038101906102789190612696565b61083a565b60405161028a9190613128565b60405180910390f35b61029b610852565b005b6102b760048036038101906102b291906126fb565b6108c1565b005b6102d360048036038101906102ce91906126fb565b610921565b005b6102ef60048036038101906102ea9190612946565b610941565b005b61030b60048036038101906103069190612696565b610a22565b005b61032760048036038101906103229190612696565b610ae2565b005b610343600480360381019061033e91906128f4565b610ba2565b6040516103509190612d78565b60405180910390f35b610373600480360381019061036e9190612696565b610c54565b6040516103809190613128565b60405180910390f35b610391610d0c565b005b61039b610d94565b6040516103a89190612d78565b60405180910390f35b6103cb60048036038101906103c691906128f4565b610dbe565b005b6103e760048036038101906103e29190612866565b610e44565b005b6103f1610ee0565b6040516103fe9190612ea6565b60405180910390f35b610421600480360381019061041c91906127c5565b610f72565b005b61042b6110f3565b6040516104389190612d78565b60405180910390f35b61044961111d565b005b6104656004803603810190610460919061274a565b61125a565b005b610481600480360381019061047c91906128f4565b6112bc565b60405161048e9190612ea6565b60405180910390f35b61049f611363565b6040516104ac9190613128565b60405180910390f35b6104bd611369565b005b6104c761142a565b6040516104d49190613128565b60405180910390f35b6104f760048036038101906104f291906126bf565b611434565b6040516105049190612e1d565b60405180910390f35b61052760048036038101906105229190612696565b6114c8565b005b60007f80ac58cd000000000000000000000000000000000000000000000000000000007bffffffffffffffffffffffffffffffffffffffffffffffffffffffff1916827bffffffffffffffffffffffffffffffffffffffffffffffffffffffff191614806105f457507f5b5e139f000000000000000000000000000000000000000000000000000000007bffffffffffffffffffffffffffffffffffffffffffffffffffffffff1916827bffffffffffffffffffffffffffffffffffffffffffffffffffffffff1916145b806106045750610603826115c0565b5b9050919050565b60606000805461061a906133db565b80601f0160208091040260200160405190810160405280929190818152602001828054610646906133db565b80156106935780601f1061066857610100808354040283529160200191610693565b820191906000526020600020905b81548152906001019060200180831161067657829003601f168201915b5050505050905090565b60006106a88261162a565b6106e7576040517f08c379a00000000000000000000000000000000000000000000000000000000081526004016106de90613028565b60405180910390fd5b6004600083815260200190815260200160002060009054906101000a900473ffffffffffffffffffffffffffffffffffffffff169050919050565b600061072d82610ba2565b90508073ffffffffffffffffffffffffffffffffffffffff168373ffffffffffffffffffffffffffffffffffffffff16141561079e576040517f08c379a0000000000000000000000000000000000000000000000000000000008152600401610795906130c8565b60405180910390fd5b8073ffffffffffffffffffffffffffffffffffffffff166107bd611696565b73ffffffffffffffffffffffffffffffffffffffff1614806107ec57506107eb816107e6611696565b611434565b5b61082b576040517f08c379a000000000000000000000000000000000000000000000000000000000815260040161082290612fa8565b60405180910390fd5b610835838361169e565b505050565b60106020528060005260406000206000915090505481565b6064600d541061086157600080fd5b6000600d5490506108723382611757565b6001600d5461088191906131dc565b600d819055507faecc5f0f7b3fc75588acdbcf66be10ff96795b9ca17d9776f3a6246ca815def0816040516108b69190613128565b60405180910390a150565b6108d26108cc611696565b82611775565b610911576040517f08c379a0000000000000000000000000000000000000000000000000000000008152600401610908906130e8565b60405180910390fd5b61091c838383611853565b505050565b61093c8383836040518060200160405280600081525061125a565b505050565b600860009054906101000a900473ffffffffffffffffffffffffffffffffffffffff1673ffffffffffffffffffffffffffffffffffffffff163373ffffffffffffffffffffffffffffffffffffffff161461099b57600080fd5b600b600082815260200190815260200160002060009054906101000a900460ff166109fb576040517f08c379a00000000000000000000000000000000000000000000000000000000081526004016109f290612ec8565b60405180910390fd5b600b600082815260200190815260200160002060006101000a81549060ff02191690555050565b610a2a611696565b73ffffffffffffffffffffffffffffffffffffffff16610a48610d94565b73ffffffffffffffffffffffffffffffffffffffff1614610a9e576040517f08c379a0000000000000000000000000000000000000000000000000000000008152600401610a9590613048565b60405180910390fd5b80600860006101000a81548173ffffffffffffffffffffffffffffffffffffffff021916908373ffffffffffffffffffffffffffffffffffffffff16021790555050565b610aea611696565b73ffffffffffffffffffffffffffffffffffffffff16610b08610d94565b73ffffffffffffffffffffffffffffffffffffffff1614610b5e576040517f08c379a0000000000000000000000000000000000000000000000000000000008152600401610b5590613048565b60405180910390fd5b80600960006101000a81548173ffffffffffffffffffffffffffffffffffffffff021916908373ffffffffffffffffffffffffffffffffffffffff16021790555050565b6000806002600084815260200190815260200160002060009054906101000a900473ffffffffffffffffffffffffffffffffffffffff169050600073ffffffffffffffffffffffffffffffffffffffff168173ffffffffffffffffffffffffffffffffffffffff161415610c4b576040517f08c379a0000000000000000000000000000000000000000000000000000000008152600401610c4290612fe8565b60405180910390fd5b80915050919050565b60008073ffffffffffffffffffffffffffffffffffffffff168273ffffffffffffffffffffffffffffffffffffffff161415610cc5576040517f08c379a0000000000000000000000000000000000000000000000000000000008152600401610cbc90612fc8565b60405180910390fd5b600360008373ffffffffffffffffffffffffffffffffffffffff1673ffffffffffffffffffffffffffffffffffffffff168152602001908152602001600020549050919050565b610d14611696565b73ffffffffffffffffffffffffffffffffffffffff16610d32610d94565b73ffffffffffffffffffffffffffffffffffffffff1614610d88576040517f08c379a0000000000000000000000000000000000000000000000000000000008152600401610d7f90613048565b60405180910390fd5b610d926000611aaf565b565b6000600760009054906101000a900473ffffffffffffffffffffffffffffffffffffffff16905090565b610dc6611696565b73ffffffffffffffffffffffffffffffffffffffff16610de4610d94565b73ffffffffffffffffffffffffffffffffffffffff1614610e3a576040517f08c379a0000000000000000000000000000000000000000000000000000000008152600401610e3190613048565b60405180910390fd5b80600a8190555050565b7f000000000000000000000000000000000000000000000000000000000000000073ffffffffffffffffffffffffffffffffffffffff163373ffffffffffffffffffffffffffffffffffffffff1614610ed2576040517f08c379a0000000000000000000000000000000000000000000000000000000008152600401610ec9906130a8565b60405180910390fd5b610edc8282611b75565b5050565b606060018054610eef906133db565b80601f0160208091040260200160405190810160405280929190818152602001828054610f1b906133db565b8015610f685780601f10610f3d57610100808354040283529160200191610f68565b820191906000526020600020905b815481529060010190602001808311610f4b57829003601f168201915b5050505050905090565b610f7a611696565b73ffffffffffffffffffffffffffffffffffffffff168273ffffffffffffffffffffffffffffffffffffffff161415610fe8576040517f08c379a0000000000000000000000000000000000000000000000000000000008152600401610fdf90612f68565b60405180910390fd5b8060056000610ff5611696565b73ffffffffffffffffffffffffffffffffffffffff1673ffffffffffffffffffffffffffffffffffffffff16815260200190815260200160002060008473ffffffffffffffffffffffffffffffffffffffff1673ffffffffffffffffffffffffffffffffffffffff16815260200190815260200160002060006101000a81548160ff0219169083151502179055508173ffffffffffffffffffffffffffffffffffffffff166110a2611696565b73ffffffffffffffffffffffffffffffffffffffff167f17307eab39ab6107e8899845ad3d59bd9653f200f220920489ca2b5937696c31836040516110e79190612e1d565b60405180910390a35050565b6000600860009054906101000a900473ffffffffffffffffffffffffffffffffffffffff16905090565b6000601060003373ffffffffffffffffffffffffffffffffffffffff1673ffffffffffffffffffffffffffffffffffffffff168152602001908152602001600020541161119f576040517f08c379a000000000000000000000000000000000000000000000000000000000815260040161119690613108565b60405180910390fd5b60003390506000600d5490506111b58282611757565b6001600d546111c491906131dc565b600d81905550601060008373ffffffffffffffffffffffffffffffffffffffff1673ffffffffffffffffffffffffffffffffffffffff168152602001908152602001600020600081548092919061121a906133b1565b91905055507faecc5f0f7b3fc75588acdbcf66be10ff96795b9ca17d9776f3a6246ca815def08160405161124e9190613128565b60405180910390a15050565b61126b611265611696565b83611775565b6112aa576040517f08c379a00000000000000000000000000000000000000000000000000000000081526004016112a1906130e8565b60405180910390fd5b6112b684848484611ca9565b50505050565b60606112c78261162a565b611306576040517f08c379a00000000000000000000000000000000000000000000000000000000081526004016112fd90613088565b60405180910390fd5b6000611310611d05565b90506000815111611330576040518060200160405280600081525061135b565b8061133a84611d1c565b60405160200161134b929190612d54565b6040516020818303038152906040525b915050919050565b600d5481565b6011544211156114285761137b611ec9565b601060003373ffffffffffffffffffffffffffffffffffffffff1673ffffffffffffffffffffffffffffffffffffffff16815260200190815260200160002060008154809291906113cb9061343e565b91905055507fb1a82e80233142f7fbe20bf2a8fc71869ccdbec2a92c768c62612f64be159629336040516113ff9190612d78565b60405180910390a16001600a546114169190613263565b4261142191906131dc565b6011819055505b565b6000601154905090565b6000600560008473ffffffffffffffffffffffffffffffffffffffff1673ffffffffffffffffffffffffffffffffffffffff16815260200190815260200160002060008373ffffffffffffffffffffffffffffffffffffffff1673ffffffffffffffffffffffffffffffffffffffff16815260200190815260200160002060009054906101000a900460ff16905092915050565b6114d0611696565b73ffffffffffffffffffffffffffffffffffffffff166114ee610d94565b73ffffffffffffffffffffffffffffffffffffffff1614611544576040517f08c379a000000000000000000000000000000000000000000000000000000000815260040161153b90613048565b60405180910390fd5b600073ffffffffffffffffffffffffffffffffffffffff168173ffffffffffffffffffffffffffffffffffffffff1614156115b4576040517f08c379a00000000000000000000000000000000000000000000000000000000081526004016115ab90612f08565b60405180910390fd5b6115bd81611aaf565b50565b60007f01ffc9a7000000000000000000000000000000000000000000000000000000007bffffffffffffffffffffffffffffffffffffffffffffffffffffffff1916827bffffffffffffffffffffffffffffffffffffffffffffffffffffffff1916149050919050565b60008073ffffffffffffffffffffffffffffffffffffffff166002600084815260200190815260200160002060009054906101000a900473ffffffffffffffffffffffffffffffffffffffff1673ffffffffffffffffffffffffffffffffffffffff1614159050919050565b600033905090565b816004600083815260200190815260200160002060006101000a81548173ffffffffffffffffffffffffffffffffffffffff021916908373ffffffffffffffffffffffffffffffffffffffff160217905550808273ffffffffffffffffffffffffffffffffffffffff1661171183610ba2565b73ffffffffffffffffffffffffffffffffffffffff167f8c5be1e5ebec7d5bd14f71427d1e84f3dd0314c0f7b2291e5b200ac8c7c3b92560405160405180910390a45050565b611771828260405180602001604052806000815250611fdd565b5050565b60006117808261162a565b6117bf576040517f08c379a00000000000000000000000000000000000000000000000000000000081526004016117b690612f88565b60405180910390fd5b60006117ca83610ba2565b90508073ffffffffffffffffffffffffffffffffffffffff168473ffffffffffffffffffffffffffffffffffffffff16148061183957508373ffffffffffffffffffffffffffffffffffffffff166118218461069d565b73ffffffffffffffffffffffffffffffffffffffff16145b8061184a57506118498185611434565b5b91505092915050565b8273ffffffffffffffffffffffffffffffffffffffff1661187382610ba2565b73ffffffffffffffffffffffffffffffffffffffff16146118c9576040517f08c379a00000000000000000000000000000000000000000000000000000000081526004016118c090613068565b60405180910390fd5b600073ffffffffffffffffffffffffffffffffffffffff168273ffffffffffffffffffffffffffffffffffffffff161415611939576040517f08c379a000000000000000000000000000000000000000000000000000000000815260040161193090612f48565b60405180910390fd5b611944838383612038565b61194f60008261169e565b6001600360008573ffffffffffffffffffffffffffffffffffffffff1673ffffffffffffffffffffffffffffffffffffffff168152602001908152602001600020600082825461199f91906132bd565b925050819055506001600360008473ffffffffffffffffffffffffffffffffffffffff1673ffffffffffffffffffffffffffffffffffffffff16815260200190815260200160002060008282546119f691906131dc565b92505081905550816002600083815260200190815260200160002060006101000a81548173ffffffffffffffffffffffffffffffffffffffff021916908373ffffffffffffffffffffffffffffffffffffffff160217905550808273ffffffffffffffffffffffffffffffffffffffff168473ffffffffffffffffffffffffffffffffffffffff167fddf252ad1be2c89b69c2b068fc378daa952ba7f163c4a11628f55a4df523b3ef60405160405180910390a4505050565b6000600760009054906101000a900473ffffffffffffffffffffffffffffffffffffffff16905081600760006101000a81548173ffffffffffffffffffffffffffffffffffffffff021916908373ffffffffffffffffffffffffffffffffffffffff1602179055508173ffffffffffffffffffffffffffffffffffffffff168173ffffffffffffffffffffffffffffffffffffffff167f8be0079c531659141344cd1fd0a4f28419497f9722a3daafe3b4186f6b6457e060405160405180910390a35050565b600c600083815260200190815260200160002060009054906101000a900460ff16611bd5576040517f08c379a0000000000000000000000000000000000000000000000000000000008152600401611bcc90612ec8565b60405180910390fd5b600c600083815260200190815260200160002060006101000a81549060ff02191690556000600d5482611c08919061349b565b90506000611c1582610ba2565b9050601060008273ffffffffffffffffffffffffffffffffffffffff1673ffffffffffffffffffffffffffffffffffffffff1681526020019081526020016000206000815480929190611c679061343e565b91905055507fb1a82e80233142f7fbe20bf2a8fc71869ccdbec2a92c768c62612f64be15962933604051611c9b9190612d78565b60405180910390a150505050565b611cb4848484611853565b611cc08484848461203d565b611cff576040517f08c379a0000000000000000000000000000000000000000000000000000000008152600401611cf690612ee8565b60405180910390fd5b50505050565b606060405180602001604052806000815250905090565b60606000821415611d64576040518060400160405280600181526020017f30000000000000000000000000000000000000000000000000000000000000008152509050611ec4565b600082905060005b60008214611d96578080611d7f9061343e565b915050600a82611d8f9190613232565b9150611d6c565b60008167ffffffffffffffff811115611dd8577f4e487b7100000000000000000000000000000000000000000000000000000000600052604160045260246000fd5b6040519080825280601f01601f191660200182016040528015611e0a5781602001600182028036833780820191505090505b5090505b60008514611ebd57600182611e2391906132bd565b9150600a85611e32919061349b565b6030611e3e91906131dc565b60f81b818381518110611e7a577f4e487b7100000000000000000000000000000000000000000000000000000000600052603260045260246000fd5b60200101907effffffffffffffffffffffffffffffffffffffffffffffffffffffffffffff1916908160001a905350600a85611eb69190613232565b9450611e0e565b8093505050505b919050565b6000611ed9600e54600f546121d4565b90506001600c600083815260200190815260200160002060006101000a81548160ff0219169083151502179055506000600960009054906101000a900473ffffffffffffffffffffffffffffffffffffffff1673ffffffffffffffffffffffffffffffffffffffff166398d5fdca6040518163ffffffff1660e01b8152600401602060405180830381600087803b158015611f7357600080fd5b505af1158015611f87573d6000803e3d6000fd5b505050506040513d601f19601f82011682018060405250810190611fab919061291d565b90506001600b600083815260200190815260200160002060006101000a81548160ff0219169083151502179055505050565b611fe78383612336565b611ff4600084848461203d565b612033576040517f08c379a000000000000000000000000000000000000000000000000000000000815260040161202a90612ee8565b60405180910390fd5b505050565b505050565b600061205e8473ffffffffffffffffffffffffffffffffffffffff16612504565b156121c7578373ffffffffffffffffffffffffffffffffffffffff1663150b7a02612087611696565b8786866040518563ffffffff1660e01b81526004016120a99493929190612d93565b602060405180830381600087803b1580156120c357600080fd5b505af19250505080156120f457506040513d601f19601f820116820180604052508101906120f191906128cb565b60015b612177573d8060008114612124576040519150601f19603f3d011682016040523d82523d6000602084013e612129565b606091505b5060008151141561216f576040517f08c379a000000000000000000000000000000000000000000000000000000000815260040161216690612ee8565b60405180910390fd5b805181602001fd5b63150b7a0260e01b7bffffffffffffffffffffffffffffffffffffffffffffffffffffffff1916817bffffffffffffffffffffffffffffffffffffffffffffffffffffffff1916149150506121cc565b600190505b949350505050565b60007f000000000000000000000000000000000000000000000000000000000000000073ffffffffffffffffffffffffffffffffffffffff16634000aea07f000000000000000000000000000000000000000000000000000000000000000084866000604051602001612248929190612e38565b6040516020818303038152906040526040518463ffffffff1660e01b815260040161227593929190612ddf565b602060405180830381600087803b15801561228f57600080fd5b505af11580156122a3573d6000803e3d6000fd5b505050506040513d601f19601f820116820180604052508101906122c7919061283d565b5060006122ea846000306006600089815260200190815260200160002054612517565b90506001600660008681526020019081526020016000205461230c91906131dc565b600660008681526020019081526020016000208190555061232d8482612553565b91505092915050565b600073ffffffffffffffffffffffffffffffffffffffff168273ffffffffffffffffffffffffffffffffffffffff1614156123a6576040517f08c379a000000000000000000000000000000000000000000000000000000000815260040161239d90613008565b60405180910390fd5b6123af8161162a565b156123ef576040517f08c379a00000000000000000000000000000000000000000000000000000000081526004016123e690612f28565b60405180910390fd5b6123fb60008383612038565b6001600360008473ffffffffffffffffffffffffffffffffffffffff1673ffffffffffffffffffffffffffffffffffffffff168152602001908152602001600020600082825461244b91906131dc565b92505081905550816002600083815260200190815260200160002060006101000a81548173ffffffffffffffffffffffffffffffffffffffff021916908373ffffffffffffffffffffffffffffffffffffffff160217905550808273ffffffffffffffffffffffffffffffffffffffff16600073ffffffffffffffffffffffffffffffffffffffff167fddf252ad1be2c89b69c2b068fc378daa952ba7f163c4a11628f55a4df523b3ef60405160405180910390a45050565b600080823b905060008111915050919050565b6000848484846040516020016125309493929190612e61565b6040516020818303038152906040528051906020012060001c9050949350505050565b60008282604051602001612568929190612d28565b60405160208183030381529060405280519060200120905092915050565b600061259961259484613168565b613143565b9050828152602081018484840111156125b157600080fd5b6125bc84828561336f565b509392505050565b6000813590506125d381613a92565b92915050565b6000813590506125e881613aa9565b92915050565b6000815190506125fd81613aa9565b92915050565b60008135905061261281613ac0565b92915050565b60008135905061262781613ad7565b92915050565b60008151905061263c81613ad7565b92915050565b600082601f83011261265357600080fd5b8135612663848260208601612586565b91505092915050565b60008135905061267b81613aee565b92915050565b60008151905061269081613aee565b92915050565b6000602082840312156126a857600080fd5b60006126b6848285016125c4565b91505092915050565b600080604083850312156126d257600080fd5b60006126e0858286016125c4565b92505060206126f1858286016125c4565b9150509250929050565b60008060006060848603121561271057600080fd5b600061271e868287016125c4565b935050602061272f868287016125c4565b92505060406127408682870161266c565b9150509250925092565b6000806000806080858703121561276057600080fd5b600061276e878288016125c4565b945050602061277f878288016125c4565b93505060406127908782880161266c565b925050606085013567ffffffffffffffff8111156127ad57600080fd5b6127b987828801612642565b91505092959194509250565b600080604083850312156127d857600080fd5b60006127e6858286016125c4565b92505060206127f7858286016125d9565b9150509250929050565b6000806040838503121561281457600080fd5b6000612822858286016125c4565b92505060206128338582860161266c565b9150509250929050565b60006020828403121561284f57600080fd5b600061285d848285016125ee565b91505092915050565b6000806040838503121561287957600080fd5b600061288785828601612603565b92505060206128988582860161266c565b9150509250929050565b6000602082840312156128b457600080fd5b60006128c284828501612618565b91505092915050565b6000602082840312156128dd57600080fd5b60006128eb8482850161262d565b91505092915050565b60006020828403121561290657600080fd5b60006129148482850161266c565b91505092915050565b60006020828403121561292f57600080fd5b600061293d84828501612681565b91505092915050565b6000806040838503121561295957600080fd5b60006129678582860161266c565b92505060206129788582860161266c565b9150509250929050565b61298b816132f1565b82525050565b61299a81613303565b82525050565b6129a98161330f565b82525050565b6129c06129bb8261330f565b613487565b82525050565b60006129d182613199565b6129db81856131af565b93506129eb81856020860161337e565b6129f481613588565b840191505092915050565b6000612a0a826131a4565b612a1481856131c0565b9350612a2481856020860161337e565b612a2d81613588565b840191505092915050565b6000612a43826131a4565b612a4d81856131d1565b9350612a5d81856020860161337e565b80840191505092915050565b6000612a766030836131c0565b9150612a8182613599565b604082019050919050565b6000612a996032836131c0565b9150612aa4826135e8565b604082019050919050565b6000612abc6026836131c0565b9150612ac782613637565b604082019050919050565b6000612adf601c836131c0565b9150612aea82613686565b602082019050919050565b6000612b026024836131c0565b9150612b0d826136af565b604082019050919050565b6000612b256019836131c0565b9150612b30826136fe565b602082019050919050565b6000612b48602c836131c0565b9150612b5382613727565b604082019050919050565b6000612b6b6038836131c0565b9150612b7682613776565b604082019050919050565b6000612b8e602a836131c0565b9150612b99826137c5565b604082019050919050565b6000612bb16029836131c0565b9150612bbc82613814565b604082019050919050565b6000612bd46020836131c0565b9150612bdf82613863565b602082019050919050565b6000612bf7602c836131c0565b9150612c028261388c565b604082019050919050565b6000612c1a6020836131c0565b9150612c25826138db565b602082019050919050565b6000612c3d6029836131c0565b9150612c4882613904565b604082019050919050565b6000612c60602f836131c0565b9150612c6b82613953565b604082019050919050565b6000612c83601f836131c0565b9150612c8e826139a2565b602082019050919050565b6000612ca66021836131c0565b9150612cb1826139cb565b604082019050919050565b6000612cc96031836131c0565b9150612cd482613a1a565b604082019050919050565b6000612cec6013836131c0565b9150612cf782613a69565b602082019050919050565b612d0b81613365565b82525050565b612d22612d1d82613365565b613491565b82525050565b6000612d3482856129af565b602082019150612d448284612d11565b6020820191508190509392505050565b6000612d608285612a38565b9150612d6c8284612a38565b91508190509392505050565b6000602082019050612d8d6000830184612982565b92915050565b6000608082019050612da86000830187612982565b612db56020830186612982565b612dc26040830185612d02565b8181036060830152612dd481846129c6565b905095945050505050565b6000606082019050612df46000830186612982565b612e016020830185612d02565b8181036040830152612e1381846129c6565b9050949350505050565b6000602082019050612e326000830184612991565b92915050565b6000604082019050612e4d60008301856129a0565b612e5a6020830184612d02565b9392505050565b6000608082019050612e7660008301876129a0565b612e836020830186612d02565b612e906040830185612982565b612e9d6060830184612d02565b95945050505050565b60006020820190508181036000830152612ec081846129ff565b905092915050565b60006020820190508181036000830152612ee181612a69565b9050919050565b60006020820190508181036000830152612f0181612a8c565b9050919050565b60006020820190508181036000830152612f2181612aaf565b9050919050565b60006020820190508181036000830152612f4181612ad2565b9050919050565b60006020820190508181036000830152612f6181612af5565b9050919050565b60006020820190508181036000830152612f8181612b18565b9050919050565b60006020820190508181036000830152612fa181612b3b565b9050919050565b60006020820190508181036000830152612fc181612b5e565b9050919050565b60006020820190508181036000830152612fe181612b81565b9050919050565b6000602082019050818103600083015261300181612ba4565b9050919050565b6000602082019050818103600083015261302181612bc7565b9050919050565b6000602082019050818103600083015261304181612bea565b9050919050565b6000602082019050818103600083015261306181612c0d565b9050919050565b6000602082019050818103600083015261308181612c30565b9050919050565b600060208201905081810360008301526130a181612c53565b9050919050565b600060208201905081810360008301526130c181612c76565b9050919050565b600060208201905081810360008301526130e181612c99565b9050919050565b6000602082019050818103600083015261310181612cbc565b9050919050565b6000602082019050818103600083015261312181612cdf565b9050919050565b600060208201905061313d6000830184612d02565b92915050565b600061314d61315e565b9050613159828261340d565b919050565b6000604051905090565b600067ffffffffffffffff82111561318357613182613559565b5b61318c82613588565b9050602081019050919050565b600081519050919050565b600081519050919050565b600082825260208201905092915050565b600082825260208201905092915050565b600081905092915050565b60006131e782613365565b91506131f283613365565b9250827fffffffffffffffffffffffffffffffffffffffffffffffffffffffffffffffff03821115613227576132266134cc565b5b828201905092915050565b600061323d82613365565b915061324883613365565b925082613258576132576134fb565b5b828204905092915050565b600061326e82613365565b915061327983613365565b9250817fffffffffffffffffffffffffffffffffffffffffffffffffffffffffffffffff04831182151516156132b2576132b16134cc565b5b828202905092915050565b60006132c882613365565b91506132d383613365565b9250828210156132e6576132e56134cc565b5b828203905092915050565b60006132fc82613345565b9050919050565b60008115159050919050565b6000819050919050565b60007fffffffff0000000000000000000000000000000000000000000000000000000082169050919050565b600073ffffffffffffffffffffffffffffffffffffffff82169050919050565b6000819050919050565b82818337600083830152505050565b60005b8381101561339c578082015181840152602081019050613381565b838111156133ab576000848401525b50505050565b60006133bc82613365565b915060008214156133d0576133cf6134cc565b5b600182039050919050565b600060028204905060018216806133f357607f821691505b602082108114156134075761340661352a565b5b50919050565b61341682613588565b810181811067ffffffffffffffff8211171561343557613434613559565b5b80604052505050565b600061344982613365565b91507fffffffffffffffffffffffffffffffffffffffffffffffffffffffffffffffff82141561347c5761347b6134cc565b5b600182019050919050565b6000819050919050565b6000819050919050565b60006134a682613365565b91506134b183613365565b9250826134c1576134c06134fb565b5b828206905092915050565b7f4e487b7100000000000000000000000000000000000000000000000000000000600052601160045260246000fd5b7f4e487b7100000000000000000000000000000000000000000000000000000000600052601260045260246000fd5b7f4e487b7100000000000000000000000000000000000000000000000000000000600052602260045260246000fd5b7f4e487b7100000000000000000000000000000000000000000000000000000000600052604160045260246000fd5b6000601f19601f8301169050919050565b7f546865207061737365642072657175657374206973206e6f7420696e206d792060008201527f70656e64696e6720726571756573747300000000000000000000000000000000602082015250565b7f4552433732313a207472616e7366657220746f206e6f6e20455243373231526560008201527f63656976657220696d706c656d656e7465720000000000000000000000000000602082015250565b7f4f776e61626c653a206e6577206f776e657220697320746865207a65726f206160008201527f6464726573730000000000000000000000000000000000000000000000000000602082015250565b7f4552433732313a20746f6b656e20616c7265616479206d696e74656400000000600082015250565b7f4552433732313a207472616e7366657220746f20746865207a65726f2061646460008201527f7265737300000000000000000000000000000000000000000000000000000000602082015250565b7f4552433732313a20617070726f766520746f2063616c6c657200000000000000600082015250565b7f4552433732313a206f70657261746f7220717565727920666f72206e6f6e657860008201527f697374656e7420746f6b656e0000000000000000000000000000000000000000602082015250565b7f4552433732313a20617070726f76652063616c6c6572206973206e6f74206f7760008201527f6e6572206e6f7220617070726f76656420666f7220616c6c0000000000000000602082015250565b7f4552433732313a2062616c616e636520717565727920666f7220746865207a6560008201527f726f206164647265737300000000000000000000000000000000000000000000602082015250565b7f4552433732313a206f776e657220717565727920666f72206e6f6e657869737460008201527f656e7420746f6b656e0000000000000000000000000000000000000000000000602082015250565b7f4552433732313a206d696e7420746f20746865207a65726f2061646472657373600082015250565b7f4552433732313a20617070726f76656420717565727920666f72206e6f6e657860008201527f697374656e7420746f6b656e0000000000000000000000000000000000000000602082015250565b7f4f776e61626c653a2063616c6c6572206973206e6f7420746865206f776e6572600082015250565b7f4552433732313a207472616e73666572206f6620746f6b656e2074686174206960008201527f73206e6f74206f776e0000000000000000000000000000000000000000000000602082015250565b7f4552433732314d657461646174613a2055524920717565727920666f72206e6f60008201527f6e6578697374656e7420746f6b656e0000000000000000000000000000000000602082015250565b7f4f6e6c7920565246436f6f7264696e61746f722063616e2066756c66696c6c00600082015250565b7f4552433732313a20617070726f76616c20746f2063757272656e74206f776e6560008201527f7200000000000000000000000000000000000000000000000000000000000000602082015250565b7f4552433732313a207472616e736665722063616c6c6572206973206e6f74206f60008201527f776e6572206e6f7220617070726f766564000000000000000000000000000000602082015250565b7f4e6f20746f6b656e7320746f20636c61696d2100000000000000000000000000600082015250565b613a9b816132f1565b8114613aa657600080fd5b50565b613ab281613303565b8114613abd57600080fd5b50565b613ac98161330f565b8114613ad457600080fd5b50565b613ae081613319565b8114613aeb57600080fd5b50565b613af781613365565b8114613b0257600080fd5b5056fea2646970667358221220e9764bf457627299eafa3d9ecb82068289b5c4cce2e9ec956a81d406dc6ad1cd64736f6c63430008040033",
  "immutableReferences": {
    "73": [
      {
        "length": 32,
        "start": 8664
      }
    ],
    "75": [
      {
        "length": 32,
        "start": 3654
      },
      {
        "length": 32,
        "start": 8724
      }
    ]
  },
  "source": "pragma solidity 0.8.4;\r\nimport \"@openzeppelin/contracts/token/ERC721/ERC721.sol\";\r\nimport \"@openzeppelin/contracts/access/AccessControl.sol\";\r\nimport \"@chainlink/contracts/src/v0.8/VRFConsumerBase.sol\";\r\nimport \"@openzeppelin/contracts/access/Ownable.sol\";\r\nimport \"./oracleInterface.sol\" ;\r\ncontract bedaNFT is ERC721, VRFConsumerBase, Ownable{\r\n    \r\n    address oracleService ;\r\n\toracleInterface priceOracle;\r\n    \r\n    uint DEFAULT_GEN_DAYS = 5;\r\n    \r\n    mapping (uint => bool) priceOracleRequests;\r\n    \r\n    mapping (bytes32 => bool) VRFOracleRequests;\r\n    uint256 public tokenCounter;\r\n    bytes32 internal keyHash;\r\n    uint256 internal fee;\r\n\r\n    mapping(address => uint) public tokensToClaim;\r\n\r\n    uint nextGenTime;\r\n\r\n    event newMint(uint256 tokenId);\r\n    event new_Winner(address winnerAddress);\r\n \r\n\r\n    constructor (address _VRFCoordinator, address _LinkToken, bytes32 _KeyHash) \r\n    public \r\n    VRFConsumerBase(_VRFCoordinator, _LinkToken)\r\n    ERC721(\"BEDA Art\", \"BEDA\"){\r\n        //_setupRole(DEFAULT_ADMIN_ROLE, msg.sender);\r\n        tokenCounter = 0;\r\n        keyHash = _KeyHash;\r\n        fee = 0.1 * 10 ** 18;\r\n    }\r\n\r\n    modifier onlyOracle(){\r\n        require(msg.sender == oracleService);\r\n        _;\r\n        \r\n    }\r\n    function checkTime() public{\r\n        //updateNextGen();\r\n        if (block.timestamp > nextGenTime){\r\n            generateFunction();\r\n            tokensToClaim[msg.sender]++;\r\n           //_setupRole(ONE_TIME_MINTER, winner);\r\n            emit new_Winner(msg.sender);\r\n            // set the next gen time temporary for a defualt time until the next gen time is calculated and set\r\n            nextGenTime = block.timestamp + (DEFAULT_GEN_DAYS * 1 );\r\n            \r\n        }\r\n    }\r\n\r\n    function generateFunction() internal {\r\n        bytes32 requestId = requestRandomness(keyHash, fee);\r\n        VRFOracleRequests[requestId] = true;\r\n        uint id = priceOracle.getPrice();\r\n\t\tpriceOracleRequests[id] = true;\r\n        \r\n    }\r\n\r\n    function fulfillRandomness(bytes32 requestId, uint256 randomNumber) internal override{\r\n        require(VRFOracleRequests[requestId],\"The passed request is not in my pending requests\");\r\n        delete VRFOracleRequests[requestId]; \r\n        uint256 winningToken = randomNumber % tokenCounter;\r\n        address winner = ownerOf(winningToken);\r\n        tokensToClaim[winner]++;\r\n        emit new_Winner(msg.sender);\r\n        //_setupRole(ONE_TIME_MINTER, winner);\r\n\r\n    }\r\n\r\n\tfunction updateNextGenTime(uint _avgSale,uint _requestId) public onlyOracle {\r\n\trequire(priceOracleRequests[_requestId],\"The passed request is not in my pending requests\");\r\n\tdelete priceOracleRequests[_requestId];\r\n    // ADD Kareem's economics function using the price\r\n    // nextGenTime = \r\n\t}\r\n\r\n    function claimReward() public {\r\n        require(tokensToClaim[msg.sender] > 0, \"No tokens to claim!\");\r\n        address newOwner = msg.sender;\r\n        uint256 newItemId = tokenCounter;\r\n        _safeMint(newOwner,newItemId);\r\n        // revokeRole(,msg.sender)\r\n        tokenCounter = tokenCounter +1;\r\n        tokensToClaim[newOwner]--;\r\n        emit newMint(newItemId);\r\n    }\r\n\r\n   function mintToken() public{\r\n        require(tokenCounter < 100);\r\n        uint256 newItemId = tokenCounter;\r\n        _safeMint(msg.sender, newItemId);\r\n        tokenCounter = tokenCounter + 1;\r\n        emit newMint(newItemId);\r\n    }\r\n    \r\n    \r\n    // change the oracle contract instance\r\n    function setOracleInstance(address _oracle) public onlyOwner{\r\n\tpriceOracle = oracleInterface(_oracle);\r\n\t}\r\n    \r\n    // Change the address that will call the update price function\r\n    function setOracleService(address _service) public onlyOwner {\r\n        oracleService = _service;\r\n    }\r\n    \r\n    // Change the address that will call the update price function\r\n    function setDefaultGenTime(uint _no_Days) public onlyOwner {\r\n        DEFAULT_GEN_DAYS = _no_Days;\r\n    }\r\n\t\r\n\tfunction getNextGenTime() view public returns (uint){\r\n\treturn nextGenTime;\r\n\t} \r\n\tfunction getOracleService() public view returns(address){\r\n    return oracleService;\r\n  }\r\n\r\n}",
  "sourcePath": "D:\\work\\BlockChain\\Project\\Final\\contracts\\nft.sol",
  "compiler": {
    "name": "solc",
    "version": "0.8.4+commit.c7e474f2.Emscripten.clang"
  },
  "schemaVersion": "3.4.3",
  "updatedAt": "2021-09-18T03:48:29.355Z",
  "networkType": "ethereum",
  "devdoc": {
    "kind": "dev",
    "methods": {
      "approve(address,uint256)": {
        "details": "See {IERC721-approve}."
      },
      "balanceOf(address)": {
        "details": "See {IERC721-balanceOf}."
      },
      "getApproved(uint256)": {
        "details": "See {IERC721-getApproved}."
      },
      "isApprovedForAll(address,address)": {
        "details": "See {IERC721-isApprovedForAll}."
      },
      "name()": {
        "details": "See {IERC721Metadata-name}."
      },
      "owner()": {
        "details": "Returns the address of the current owner."
      },
      "ownerOf(uint256)": {
        "details": "See {IERC721-ownerOf}."
      },
      "renounceOwnership()": {
        "details": "Leaves the contract without owner. It will not be possible to call `onlyOwner` functions anymore. Can only be called by the current owner. NOTE: Renouncing ownership will leave the contract without an owner, thereby removing any functionality that is only available to the owner."
      },
      "safeTransferFrom(address,address,uint256)": {
        "details": "See {IERC721-safeTransferFrom}."
      },
      "safeTransferFrom(address,address,uint256,bytes)": {
        "details": "See {IERC721-safeTransferFrom}."
      },
      "setApprovalForAll(address,bool)": {
        "details": "See {IERC721-setApprovalForAll}."
      },
      "supportsInterface(bytes4)": {
        "details": "See {IERC165-supportsInterface}."
      },
      "symbol()": {
        "details": "See {IERC721Metadata-symbol}."
      },
      "tokenURI(uint256)": {
        "details": "See {IERC721Metadata-tokenURI}."
      },
      "transferFrom(address,address,uint256)": {
        "details": "See {IERC721-transferFrom}."
      },
      "transferOwnership(address)": {
        "details": "Transfers ownership of the contract to a new account (`newOwner`). Can only be called by the current owner."
      }
    },
    "version": 1
  },
  "userdoc": {
    "kind": "user",
    "methods": {},
    "version": 1
  }
}