{
  "contractName": "oracle",
  "abi": [
    {
      "anonymous": false,
      "inputs": [
        {
          "indexed": false,
          "internalType": "address",
          "name": "sender",
          "type": "address"
        },
        {
          "indexed": false,
          "internalType": "uint256",
          "name": "id",
          "type": "uint256"
        }
      ],
      "name": "GetAvgPriceEvent",
      "type": "event"
    },
    {
      "anonymous": false,
      "inputs": [
        {
          "indexed": true,
          "internalType": "address",
          "name": "previousOwner",
          "type": "address"
        },
        {
          "indexed": true,
          "internalType": "address",
          "name": "newOwner",
          "type": "address"
        }
      ],
      "name": "OwnershipTransferred",
      "type": "event"
    },
    {
      "anonymous": false,
      "inputs": [
        {
          "indexed": false,
          "internalType": "uint256",
          "name": "id",
          "type": "uint256"
        },
        {
          "indexed": false,
          "internalType": "uint256",
          "name": "price",
          "type": "uint256"
        }
      ],
      "name": "SetAvgPriceEvent",
      "type": "event"
    },
    {
      "inputs": [],
      "name": "owner",
      "outputs": [
        {
          "internalType": "address",
          "name": "",
          "type": "address"
        }
      ],
      "stateMutability": "view",
      "type": "function",
      "constant": true
    },
    {
      "inputs": [],
      "name": "renounceOwnership",
      "outputs": [],
      "stateMutability": "nonpayable",
      "type": "function"
    },
    {
      "inputs": [
        {
          "internalType": "address",
          "name": "newOwner",
          "type": "address"
        }
      ],
      "name": "transferOwnership",
      "outputs": [],
      "stateMutability": "nonpayable",
      "type": "function"
    },
    {
      "inputs": [
        {
          "internalType": "address",
          "name": "_newContract",
          "type": "address"
        }
      ],
      "name": "setcallBackContract",
      "outputs": [],
      "stateMutability": "nonpayable",
      "type": "function"
    },
    {
      "inputs": [],
      "name": "getPrice",
      "outputs": [
        {
          "internalType": "uint256",
          "name": "",
          "type": "uint256"
        }
      ],
      "stateMutability": "nonpayable",
      "type": "function"
    },
    {
      "inputs": [
        {
          "internalType": "uint256",
          "name": "_price",
          "type": "uint256"
        },
        {
          "internalType": "uint256",
          "name": "_id",
          "type": "uint256"
        },
        {
          "internalType": "address",
          "name": "_caller",
          "type": "address"
        }
      ],
      "name": "setPrice",
      "outputs": [],
      "stateMutability": "nonpayable",
      "type": "function"
    },
    {
      "inputs": [],
      "name": "isRequested",
      "outputs": [
        {
          "internalType": "bool",
          "name": "",
          "type": "bool"
        }
      ],
      "stateMutability": "view",
      "type": "function",
      "constant": true
    },
    {
      "inputs": [],
      "name": "getCallBackContract",
      "outputs": [
        {
          "internalType": "address",
          "name": "",
          "type": "address"
        }
      ],
      "stateMutability": "view",
      "type": "function",
      "constant": true
    }
  ],
  "bytecode": "0x608060405260006001556103e86002556000600360006101000a81548160ff02191690831515021790555034801561003657600080fd5b5061005361004861005860201b60201c565b61006060201b60201c565b610124565b600033905090565b60008060009054906101000a900473ffffffffffffffffffffffffffffffffffffffff169050816000806101000a81548173ffffffffffffffffffffffffffffffffffffffff021916908373ffffffffffffffffffffffffffffffffffffffff1602179055508173ffffffffffffffffffffffffffffffffffffffff168173ffffffffffffffffffffffffffffffffffffffff167f8be0079c531659141344cd1fd0a4f28419497f9722a3daafe3b4186f6b6457e060405160405180910390a35050565b610d42806101336000396000f3fe608060405234801561001057600080fd5b50600436106100885760003560e01c806398d5fdca1161005b57806398d5fdca146100f1578063e29458be1461010f578063f2fde38b1461012b578063f83fcdea1461014757610088565b8063715018a61461008d5780638da5cb5b1461009757806397781f02146100b5578063979f59bc146100d3575b600080fd5b610095610163565b005b61009f6101eb565b6040516100ac91906109a8565b60405180910390f35b6100bd610214565b6040516100ca91906109ec565b60405180910390f35b6100db61022b565b6040516100e891906109a8565b60405180910390f35b6100f9610255565b6040516101069190610a67565b60405180910390f35b6101296004803603810190610124919061082f565b610337565b005b6101456004803603810190610140919061082f565b61045a565b005b610161600480360381019061015c9190610858565b610552565b005b61016b610739565b73ffffffffffffffffffffffffffffffffffffffff166101896101eb565b73ffffffffffffffffffffffffffffffffffffffff16146101df576040517f08c379a00000000000000000000000000000000000000000000000000000000081526004016101d690610a27565b60405180910390fd5b6101e96000610741565b565b60008060009054906101000a900473ffffffffffffffffffffffffffffffffffffffff16905090565b6000600360009054906101000a900460ff16905090565b6000600560009054906101000a900473ffffffffffffffffffffffffffffffffffffffff16905090565b60006001600081548092919061026a90610b04565b91905055506000600254423360015460405160200161028b9392919061096b565b6040516020818303038152906040528051906020012060001c6102ae9190610b7b565b905060016004600083815260200190815260200160002060006101000a81548160ff0219169083151502179055507f755bccaa78203f22da649d75110705fe93058cb4e680c37508a89cac90a33ed9338260405161030d9291906109c3565b60405180910390a16001600360006101000a81548160ff0219169083151502179055508091505090565b61033f610739565b73ffffffffffffffffffffffffffffffffffffffff1661035d6101eb565b73ffffffffffffffffffffffffffffffffffffffff16146103b3576040517f08c379a00000000000000000000000000000000000000000000000000000000081526004016103aa90610a27565b60405180910390fd5b80600560006101000a81548173ffffffffffffffffffffffffffffffffffffffff021916908373ffffffffffffffffffffffffffffffffffffffff160217905550600560009054906101000a900473ffffffffffffffffffffffffffffffffffffffff16600660006101000a81548173ffffffffffffffffffffffffffffffffffffffff021916908373ffffffffffffffffffffffffffffffffffffffff16021790555050565b610462610739565b73ffffffffffffffffffffffffffffffffffffffff166104806101eb565b73ffffffffffffffffffffffffffffffffffffffff16146104d6576040517f08c379a00000000000000000000000000000000000000000000000000000000081526004016104cd90610a27565b60405180910390fd5b600073ffffffffffffffffffffffffffffffffffffffff168173ffffffffffffffffffffffffffffffffffffffff161415610546576040517f08c379a000000000000000000000000000000000000000000000000000000000815260040161053d90610a07565b60405180910390fd5b61054f81610741565b50565b61055a610739565b73ffffffffffffffffffffffffffffffffffffffff166105786101eb565b73ffffffffffffffffffffffffffffffffffffffff16146105ce576040517f08c379a00000000000000000000000000000000000000000000000000000000081526004016105c590610a27565b60405180910390fd5b6004600083815260200190815260200160002060009054906101000a900460ff1661062e576040517f08c379a000000000000000000000000000000000000000000000000000000000815260040161062590610a47565b60405180910390fd5b6004600083815260200190815260200160002060006101000a81549060ff02191690557f3d1758027f62fabb4efa0583040cb83b33bed7fe60d2f9fdb9504dbdfe295ca68284604051610682929190610a82565b60405180910390a1600660009054906101000a900473ffffffffffffffffffffffffffffffffffffffff1673ffffffffffffffffffffffffffffffffffffffff1663515ba4a984846040518363ffffffff1660e01b81526004016106e7929190610a82565b600060405180830381600087803b15801561070157600080fd5b505af1158015610715573d6000803e3d6000fd5b505050506000600360006101000a81548160ff021916908315150217905550505050565b600033905090565b60008060009054906101000a900473ffffffffffffffffffffffffffffffffffffffff169050816000806101000a81548173ffffffffffffffffffffffffffffffffffffffff021916908373ffffffffffffffffffffffffffffffffffffffff1602179055508173ffffffffffffffffffffffffffffffffffffffff168173ffffffffffffffffffffffffffffffffffffffff167f8be0079c531659141344cd1fd0a4f28419497f9722a3daafe3b4186f6b6457e060405160405180910390a35050565b60008135905061081481610cde565b92915050565b60008135905061082981610cf5565b92915050565b60006020828403121561084157600080fd5b600061084f84828501610805565b91505092915050565b60008060006060848603121561086d57600080fd5b600061087b8682870161081a565b935050602061088c8682870161081a565b925050604061089d86828701610805565b9150509250925092565b6108b081610abc565b82525050565b6108c76108c282610abc565b610b4d565b82525050565b6108d681610ace565b82525050565b60006108e9602683610aab565b91506108f482610c17565b604082019050919050565b600061090c602083610aab565b915061091782610c66565b602082019050919050565b600061092f602183610aab565b915061093a82610c8f565b604082019050919050565b61094e81610afa565b82525050565b61096561096082610afa565b610b71565b82525050565b60006109778286610954565b60208201915061098782856108b6565b6014820191506109978284610954565b602082019150819050949350505050565b60006020820190506109bd60008301846108a7565b92915050565b60006040820190506109d860008301856108a7565b6109e56020830184610945565b9392505050565b6000602082019050610a0160008301846108cd565b92915050565b60006020820190508181036000830152610a20816108dc565b9050919050565b60006020820190508181036000830152610a40816108ff565b9050919050565b60006020820190508181036000830152610a6081610922565b9050919050565b6000602082019050610a7c6000830184610945565b92915050565b6000604082019050610a976000830185610945565b610aa46020830184610945565b9392505050565b600082825260208201905092915050565b6000610ac782610ada565b9050919050565b60008115159050919050565b600073ffffffffffffffffffffffffffffffffffffffff82169050919050565b6000819050919050565b6000610b0f82610afa565b91507fffffffffffffffffffffffffffffffffffffffffffffffffffffffffffffffff821415610b4257610b41610bac565b5b600182019050919050565b6000610b5882610b5f565b9050919050565b6000610b6a82610c0a565b9050919050565b6000819050919050565b6000610b8682610afa565b9150610b9183610afa565b925082610ba157610ba0610bdb565b5b828206905092915050565b7f4e487b7100000000000000000000000000000000000000000000000000000000600052601160045260246000fd5b7f4e487b7100000000000000000000000000000000000000000000000000000000600052601260045260246000fd5b60008160601b9050919050565b7f4f776e61626c653a206e6577206f776e657220697320746865207a65726f206160008201527f6464726573730000000000000000000000000000000000000000000000000000602082015250565b7f4f776e61626c653a2063616c6c6572206973206e6f7420746865206f776e6572600082015250565b7f72657175657374206973206e6f7420696e206d792070656e64696e67206c697360008201527f7400000000000000000000000000000000000000000000000000000000000000602082015250565b610ce781610abc565b8114610cf257600080fd5b50565b610cfe81610afa565b8114610d0957600080fd5b5056fea26469706673582212206630349cf2233f7a5b425c8e2c27d829e775bd3853141e91d587752dbd87cbbc64736f6c63430008040033",
  "immutableReferences": {},
  "source": "pragma solidity 0.8.4;\r\n\r\nimport \"@openzeppelin/contracts/access/Ownable.sol\";\r\nimport \"./nftInterface.sol\" ;\r\n\r\ncontract oracle is Ownable {\r\n  uint private randNonce = 0;\r\n  uint private modulus = 1000;\r\n  bool private requested = false;\r\n  \r\n  mapping (uint256=>bool) pendingRequests;\r\n  \r\n  event GetAvgPriceEvent(address sender, uint id);\r\n  \r\n  event SetAvgPriceEvent(uint id, uint256 price);\r\n  \r\n  address private callbackContract;\r\n\r\n  bedaNFTInterface instance;\r\n\r\n  \r\n  function setcallBackContract(address _newContract) public onlyOwner {\r\n      callbackContract = _newContract;\r\n      instance = bedaNFTInterface(callbackContract);\r\n  }\r\n  \r\n  \r\n  function getPrice() public returns(uint ){\r\n    randNonce++;\r\n    uint id = uint(keccak256(abi.encodePacked(block.timestamp, msg.sender, randNonce))) % modulus;\r\n    pendingRequests[id] = true;\r\n    emit GetAvgPriceEvent(msg.sender,id);\r\n    requested = true;\r\n    return id;\r\n      \r\n  }\r\n  \r\n  function setPrice (uint _price, uint _id, address _caller) public onlyOwner{\r\n      require(pendingRequests[_id],\"request is not in my pending list\");\r\n      delete pendingRequests[_id];\r\n      emit SetAvgPriceEvent(_id,_price);\r\n      instance.updateNextGenTime(_price,_id);\r\n      requested = false;\r\n      \r\n  }\r\n  function isRequested() public view returns(bool){\r\n    return requested;\r\n  }\r\n  function getCallBackContract() public view returns(address){\r\n    return callbackContract;\r\n  }\r\n\r\n}",
  "sourcePath": "D:\\work\\BlockChain\\Project\\Final\\contracts\\oracle.sol",
  "compiler": {
    "name": "solc",
    "version": "0.8.4+commit.c7e474f2.Emscripten.clang"
  },
  "schemaVersion": "3.4.3",
  "updatedAt": "2021-09-18T03:48:29.340Z",
  "networkType": "ethereum",
  "devdoc": {
    "kind": "dev",
    "methods": {
      "owner()": {
        "details": "Returns the address of the current owner."
      },
      "renounceOwnership()": {
        "details": "Leaves the contract without owner. It will not be possible to call `onlyOwner` functions anymore. Can only be called by the current owner. NOTE: Renouncing ownership will leave the contract without an owner, thereby removing any functionality that is only available to the owner."
      },
      "transferOwnership(address)": {
        "details": "Transfers ownership of the contract to a new account (`newOwner`). Can only be called by the current owner."
      }
    },
    "version": 1
  },
  "userdoc": {
    "kind": "user",
    "methods": {},
    "version": 1
  }
}